{
  "contractName": "HelloWorld2",
  "abi": [
    {
      "inputs": [
        {
          "internalType": "string",
          "name": "_greet",
          "type": "string"
        }
      ],
      "stateMutability": "nonpayable",
      "type": "constructor"
    },
    {
      "inputs": [],
      "name": "greeting",
      "outputs": [
        {
          "internalType": "string",
          "name": "",
          "type": "string"
        }
      ],
      "stateMutability": "view",
      "type": "function"
    },
    {
      "inputs": [],
      "name": "test",
      "outputs": [
        {
          "internalType": "address",
          "name": "",
          "type": "address"
        }
      ],
      "stateMutability": "view",
      "type": "function"
    }
  ],
  "bytecode": "0x608060405234801561001057600080fd5b506040516105e83803806105e883398181016040528101906100329190610270565b806000908051906020019061004892919061004f565b505061031a565b82805461005b906102e8565b90600052602060002090601f01602090048101928261007d57600085556100c4565b82601f1061009657805160ff19168380011785556100c4565b828001600101855582156100c4579182015b828111156100c35782518255916020019190600101906100a8565b5b5090506100d191906100d5565b5090565b5b808211156100ee5760008160009055506001016100d6565b5090565b6000604051905090565b600080fd5b600080fd5b600080fd5b600080fd5b6000601f19601f8301169050919050565b7f4e487b7100000000000000000000000000000000000000000000000000000000600052604160045260246000fd5b61015982610110565b810181811067ffffffffffffffff8211171561017857610177610121565b5b80604052505050565b600061018b6100f2565b90506101978282610150565b919050565b600067ffffffffffffffff8211156101b7576101b6610121565b5b6101c082610110565b9050602081019050919050565b60005b838110156101eb5780820151818401526020810190506101d0565b838111156101fa576000848401525b50505050565b600061021361020e8461019c565b610181565b90508281526020810184848401111561022f5761022e61010b565b5b61023a8482856101cd565b509392505050565b600082601f83011261025757610256610106565b5b8151610267848260208601610200565b91505092915050565b600060208284031215610286576102856100fc565b5b600082015167ffffffffffffffff8111156102a4576102a3610101565b5b6102b084828501610242565b91505092915050565b7f4e487b7100000000000000000000000000000000000000000000000000000000600052602260045260246000fd5b6000600282049050600182168061030057607f821691505b60208210811415610314576103136102b9565b5b50919050565b6102bf806103296000396000f3fe608060405234801561001057600080fd5b50600436106100365760003560e01c8063ef690cc01461003b578063f8a8fd6d14610059575b600080fd5b610043610077565b60405161005091906101aa565b60405180910390f35b610061610109565b60405161006e919061020d565b60405180910390f35b60606000805461008690610257565b80601f01602080910402602001604051908101604052809291908181526020018280546100b290610257565b80156100ff5780601f106100d4576101008083540402835291602001916100ff565b820191906000526020600020905b8154815290600101906020018083116100e257829003601f168201915b5050505050905090565b600032905090565b600081519050919050565b600082825260208201905092915050565b60005b8381101561014b578082015181840152602081019050610130565b8381111561015a576000848401525b50505050565b6000601f19601f8301169050919050565b600061017c82610111565b610186818561011c565b935061019681856020860161012d565b61019f81610160565b840191505092915050565b600060208201905081810360008301526101c48184610171565b905092915050565b600073ffffffffffffffffffffffffffffffffffffffff82169050919050565b60006101f7826101cc565b9050919050565b610207816101ec565b82525050565b600060208201905061022260008301846101fe565b92915050565b7f4e487b7100000000000000000000000000000000000000000000000000000000600052602260045260246000fd5b6000600282049050600182168061026f57607f821691505b6020821081141561028357610282610228565b5b5091905056fea26469706673582212207c3da824b5423999aaeed800d34051d259cec0e22e7a8372de4738f041cd527364736f6c634300080a0033",
  "immutableReferences": {},
  "source": "// SPDX-License-Identifier: Apache-2.0\npragma solidity ^0.8.0;\n// Modified Greeter contract. Based on example at https://www.ethereum.org/greeter.\ncontract HelloWorld2 {\n    string greet;\n\n    constructor (string memory _greet) {\n        greet = _greet;\n    }\n\n    function greeting() public view returns (string memory) {\n        return greet;\n    }\n\n    function test() public view returns (address) {\n        return tx.origin;\n    }\n}",
  "sourcePath": "/home/linh/Documents/visual-studio-code-solidity-test/contracts/HelloWorld2.sol",
  "compiler": {
    "name": "solc",
    "version": "0.8.10+commit.fc410830.Emscripten.clang"
  },
  "schemaVersion": "3.4.3",
  "updatedAt": "2022-02-10T13:38:40.146Z",
  "devdoc": {
    "kind": "dev",
    "methods": {},
    "version": 1
  },
  "userdoc": {
    "kind": "user",
    "methods": {},
    "version": 1
  }
}